{
    "_format": "hh-sol-artifact-1",
    "contractName": "GachaNFT",
    "sourceName": "contracts/GachaNFT.sol",
    "abi": [
        {
            "inputs": [],
            "stateMutability": "nonpayable",
            "type": "constructor"
        },
        {
            "inputs": [
                {
                    "internalType": "address",
                    "name": "nftContract",
                    "type": "address"
                },
                {
                    "internalType": "uint256",
                    "name": "tokenId",
                    "type": "uint256"
                },
                {
                    "internalType": "uint256",
                    "name": "price",
                    "type": "uint256"
                }
            ],
            "name": "deposit",
            "outputs": [],
            "stateMutability": "nonpayable",
            "type": "function"
        },
        {
            "inputs": [
                {
                    "internalType": "uint256",
                    "name": "offerId",
                    "type": "uint256"
                }
            ],
            "name": "getOffer",
            "outputs": [
                {
                    "components": [
                        {
                            "internalType": "address",
                            "name": "nftContract",
                            "type": "address"
                        },
                        {
                            "internalType": "address",
                            "name": "owner",
                            "type": "address"
                        },
                        {
                            "internalType": "uint256",
                            "name": "tokenId",
                            "type": "uint256"
                        },
                        {
                            "internalType": "uint256",
                            "name": "price",
                            "type": "uint256"
                        }
                    ],
                    "internalType": "struct GachaNFT.Offer",
                    "name": "",
                    "type": "tuple"
                }
            ],
            "stateMutability": "view",
            "type": "function"
        },
        {
            "inputs": [],
            "name": "getOffersByOwner",
            "outputs": [
                {
                    "components": [
                        {
                            "internalType": "address",
                            "name": "nftContract",
                            "type": "address"
                        },
                        {
                            "internalType": "address",
                            "name": "owner",
                            "type": "address"
                        },
                        {
                            "internalType": "uint256",
                            "name": "tokenId",
                            "type": "uint256"
                        },
                        {
                            "internalType": "uint256",
                            "name": "price",
                            "type": "uint256"
                        }
                    ],
                    "internalType": "struct GachaNFT.Offer[]",
                    "name": "",
                    "type": "tuple[]"
                }
            ],
            "stateMutability": "view",
            "type": "function"
        },
        {
            "inputs": [
                {
                    "internalType": "uint256",
                    "name": "",
                    "type": "uint256"
                }
            ],
            "name": "offers",
            "outputs": [
                {
                    "internalType": "address",
                    "name": "nftContract",
                    "type": "address"
                },
                {
                    "internalType": "address",
                    "name": "owner",
                    "type": "address"
                },
                {
                    "internalType": "uint256",
                    "name": "tokenId",
                    "type": "uint256"
                },
                {
                    "internalType": "uint256",
                    "name": "price",
                    "type": "uint256"
                }
            ],
            "stateMutability": "view",
            "type": "function"
        },
        {
            "inputs": [
                {
                    "internalType": "address",
                    "name": "",
                    "type": "address"
                },
                {
                    "internalType": "address",
                    "name": "",
                    "type": "address"
                },
                {
                    "internalType": "uint256",
                    "name": "",
                    "type": "uint256"
                },
                {
                    "internalType": "bytes",
                    "name": "",
                    "type": "bytes"
                }
            ],
            "name": "onERC721Received",
            "outputs": [
                {
                    "internalType": "bytes4",
                    "name": "",
                    "type": "bytes4"
                }
            ],
            "stateMutability": "nonpayable",
            "type": "function"
        },
        {
            "inputs": [
                {
                    "internalType": "uint256",
                    "name": "offerId",
                    "type": "uint256"
                },
                {
                    "internalType": "uint256",
                    "name": "maxPrice",
                    "type": "uint256"
                }
            ],
            "name": "purchase",
            "outputs": [],
            "stateMutability": "payable",
            "type": "function"
        },
        {
            "inputs": [
                {
                    "internalType": "uint256",
                    "name": "maxPrice",
                    "type": "uint256"
                }
            ],
            "name": "selectRandomNFT",
            "outputs": [
                {
                    "internalType": "uint256",
                    "name": "",
                    "type": "uint256"
                }
            ],
            "stateMutability": "view",
            "type": "function"
        },
        {
            "inputs": [
                {
                    "internalType": "address",
                    "name": "nftContractAddress",
                    "type": "address"
                },
                {
                    "internalType": "uint256",
                    "name": "tokenId",
                    "type": "uint256"
                }
            ],
            "name": "withdraw",
            "outputs": [],
            "stateMutability": "nonpayable",
            "type": "function"
        }
    ],
    "bytecode": "0x608060405234801561001057600080fd5b50611f6e806100206000396000f3fe60806040526004361061007b5760003560e01c806389f9f4b61161004e57806389f9f4b61461013f5780638a72ea6a1461017c5780639508df28146101bc578063f3fef3a3146101e75761007b565b80630efe6a8b14610080578063150b7a02146100a95780634579268a146100e657806370876c9814610123575b600080fd5b34801561008c57600080fd5b506100a760048036038101906100a2919061140f565b610210565b005b3480156100b557600080fd5b506100d060048036038101906100cb91906115a8565b6103f0565b6040516100dd9190611666565b60405180910390f35b3480156100f257600080fd5b5061010d60048036038101906101089190611681565b610404565b60405161011a9190611721565b60405180910390f35b61013d6004803603810190610138919061173c565b6104f1565b005b34801561014b57600080fd5b5061016660048036038101906101619190611681565b6107b2565b604051610173919061178b565b60405180910390f35b34801561018857600080fd5b506101a3600480360381019061019e9190611681565b610a2f565b6040516101b394939291906117b5565b60405180910390f35b3480156101c857600080fd5b506101d1610a9f565b6040516101de91906118fe565b60405180910390f35b3480156101f357600080fd5b5061020e60048036038101906102099190611920565b610d69565b005b60008111610253576040517f08c379a000000000000000000000000000000000000000000000000000000000815260040161024a906119bd565b60405180910390fd5b8273ffffffffffffffffffffffffffffffffffffffff166323b872dd3330856040518463ffffffff1660e01b8152600401610290939291906119dd565b600060405180830381600087803b1580156102aa57600080fd5b505af11580156102be573d6000803e3d6000fd5b5050505060006102ce3384611052565b905060405180608001604052808573ffffffffffffffffffffffffffffffffffffffff1681526020013373ffffffffffffffffffffffffffffffffffffffff168152602001848152602001838152506002600083815260200190815260200160002060008201518160000160006101000a81548173ffffffffffffffffffffffffffffffffffffffff021916908373ffffffffffffffffffffffffffffffffffffffff16021790555060208201518160010160006101000a81548173ffffffffffffffffffffffffffffffffffffffff021916908373ffffffffffffffffffffffffffffffffffffffff16021790555060408201518160020155606082015181600301559050506103e981600061108890919063ffffffff16565b5050505050565b600063150b7a0260e01b9050949350505050565b61040c611313565b600260008381526020019081526020016000206040518060800160405290816000820160009054906101000a900473ffffffffffffffffffffffffffffffffffffffff1673ffffffffffffffffffffffffffffffffffffffff1673ffffffffffffffffffffffffffffffffffffffff1681526020016001820160009054906101000a900473ffffffffffffffffffffffffffffffffffffffff1673ffffffffffffffffffffffffffffffffffffffff1673ffffffffffffffffffffffffffffffffffffffff168152602001600282015481526020016003820154815250509050919050565b6000600260008481526020019081526020016000206040518060800160405290816000820160009054906101000a900473ffffffffffffffffffffffffffffffffffffffff1673ffffffffffffffffffffffffffffffffffffffff1673ffffffffffffffffffffffffffffffffffffffff1681526020016001820160009054906101000a900473ffffffffffffffffffffffffffffffffffffffff1673ffffffffffffffffffffffffffffffffffffffff1673ffffffffffffffffffffffffffffffffffffffff168152602001600282015481526020016003820154815250509050348160600151111561061a576040517f08c379a000000000000000000000000000000000000000000000000000000000815260040161061190611a60565b60405180910390fd5b34821461065c576040517f08c379a000000000000000000000000000000000000000000000000000000000815260040161065390611acc565b60405180910390fd5b6000816020015190508073ffffffffffffffffffffffffffffffffffffffff166108fc849081150290604051600060405180830381858888f193505050501580156106ab573d6000803e3d6000fd5b50816000015173ffffffffffffffffffffffffffffffffffffffff166323b872dd303385604001516040518463ffffffff1660e01b81526004016106f1939291906119dd565b600060405180830381600087803b15801561070b57600080fd5b505af115801561071f573d6000803e3d6000fd5b505050506107378460006110a290919063ffffffff16565b5060026000858152602001908152602001600020600080820160006101000a81549073ffffffffffffffffffffffffffffffffffffffff02191690556001820160006101000a81549073ffffffffffffffffffffffffffffffffffffffff021916905560028201600090556003820160009055505050505050565b6000806107bf60006110bc565b116107ff576040517f08c379a00000000000000000000000000000000000000000000000000000000081526004016107f690611b38565b60405180910390fd5b600061080b60006110bc565b67ffffffffffffffff8111156108245761082361147d565b5b6040519080825280602002602001820160405280156108525781602001602082028036833780820191505090505b5090506000805b61086360006110bc565b8110156109b35760006108808260006110d190919063ffffffff16565b90506000600260008381526020019081526020016000206040518060800160405290816000820160009054906101000a900473ffffffffffffffffffffffffffffffffffffffff1673ffffffffffffffffffffffffffffffffffffffff1673ffffffffffffffffffffffffffffffffffffffff1681526020016001820160009054906101000a900473ffffffffffffffffffffffffffffffffffffffff1673ffffffffffffffffffffffffffffffffffffffff1673ffffffffffffffffffffffffffffffffffffffff1681526020016002820154815260200160038201548152505090508681606001511161099e578185858151811061098357610982611b58565b5b602002602001018181525050838061099a90611bb6565b9450505b505080806109ab90611bb6565b915050610859565b50600081116109f7576040517f08c379a00000000000000000000000000000000000000000000000000000000081526004016109ee90611c70565b60405180910390fd5b6000610a02826110eb565b90506000838281518110610a1957610a18611b58565b5b6020026020010151905080945050505050919050565b60026020528060005260406000206000915090508060000160009054906101000a900473ffffffffffffffffffffffffffffffffffffffff16908060010160009054906101000a900473ffffffffffffffffffffffffffffffffffffffff16908060020154908060030154905084565b60606000610aad60006110bc565b67ffffffffffffffff811115610ac657610ac561147d565b5b604051908082528060200260200182016040528015610aff57816020015b610aec611313565b815260200190600190039081610ae45790505b509050600080600090505b610b1460006110bc565b811015610caf576000610b318260006110d190919063ffffffff16565b905060006002600083815260200190815260200160002090503373ffffffffffffffffffffffffffffffffffffffff168160010160009054906101000a900473ffffffffffffffffffffffffffffffffffffffff1673ffffffffffffffffffffffffffffffffffffffff1603610c9a57806040518060800160405290816000820160009054906101000a900473ffffffffffffffffffffffffffffffffffffffff1673ffffffffffffffffffffffffffffffffffffffff1673ffffffffffffffffffffffffffffffffffffffff1681526020016001820160009054906101000a900473ffffffffffffffffffffffffffffffffffffffff1673ffffffffffffffffffffffffffffffffffffffff1673ffffffffffffffffffffffffffffffffffffffff16815260200160028201548152602001600382015481525050858581518110610c8057610c7f611b58565b5b60200260200101819052508380610c9690611bb6565b9450505b50508080610ca790611bb6565b915050610b0a565b5060008167ffffffffffffffff811115610ccc57610ccb61147d565b5b604051908082528060200260200182016040528015610d0557816020015b610cf2611313565b815260200190600190039081610cea5790505b50905060005b82811015610d5f57838181518110610d2657610d25611b58565b5b6020026020010151828281518110610d4157610d40611b58565b5b60200260200101819052508080610d5790611bb6565b915050610d0b565b5080935050505090565b6000610d753383611052565b90506000600260008381526020019081526020016000206040518060800160405290816000820160009054906101000a900473ffffffffffffffffffffffffffffffffffffffff1673ffffffffffffffffffffffffffffffffffffffff1673ffffffffffffffffffffffffffffffffffffffff1681526020016001820160009054906101000a900473ffffffffffffffffffffffffffffffffffffffff1673ffffffffffffffffffffffffffffffffffffffff1673ffffffffffffffffffffffffffffffffffffffff1681526020016002820154815260200160038201548152505090503373ffffffffffffffffffffffffffffffffffffffff16816020015173ffffffffffffffffffffffffffffffffffffffff1614610ecb576040517f08c379a0000000000000000000000000000000000000000000000000000000008152600401610ec290611d02565b60405180910390fd5b8373ffffffffffffffffffffffffffffffffffffffff16816000015173ffffffffffffffffffffffffffffffffffffffff16148015610f0d5750828160400151145b610f4c576040517f08c379a0000000000000000000000000000000000000000000000000000000008152600401610f4390611d94565b60405180910390fd5b806000015173ffffffffffffffffffffffffffffffffffffffff166323b872dd303384604001516040518463ffffffff1660e01b8152600401610f91939291906119dd565b600060405180830381600087803b158015610fab57600080fd5b505af1158015610fbf573d6000803e3d6000fd5b50505050610fd78260006110a290919063ffffffff16565b5060026000838152602001908152602001600020600080820160006101000a81549073ffffffffffffffffffffffffffffffffffffffff02191690556001820160006101000a81549073ffffffffffffffffffffffffffffffffffffffff021916905560028201600090556003820160009055505050505050565b60008282604051602001611067929190611e1d565b6040516020818303038152906040528051906020012060001c905092915050565b600061109a836000018360001b611130565b905092915050565b60006110b4836000018360001b6111a0565b905092915050565b60006110ca826000016112b4565b9050919050565b60006110e083600001836112c5565b60001c905092915050565b6000804244604051602001611101929190611e49565b6040516020818303038152906040528051906020012060001c905082816111289190611ea4565b915050919050565b600061113c83836112f0565b61119557826000018290806001815401808255809150506001900390600052602060002001600090919091909150558260000180549050836001016000848152602001908152602001600020819055506001905061119a565b600090505b92915050565b600080836001016000848152602001908152602001600020549050600081146112a85760006001826111d29190611ed5565b90506000600186600001805490506111ea9190611ed5565b905081811461125957600086600001828154811061120b5761120a611b58565b5b906000526020600020015490508087600001848154811061122f5761122e611b58565b5b90600052602060002001819055508387600101600083815260200190815260200160002081905550505b8560000180548061126d5761126c611f09565b5b6001900381819060005260206000200160009055905585600101600086815260200190815260200160002060009055600193505050506112ae565b60009150505b92915050565b600081600001805490509050919050565b60008260000182815481106112dd576112dc611b58565b5b9060005260206000200154905092915050565b600080836001016000848152602001908152602001600020541415905092915050565b6040518060800160405280600073ffffffffffffffffffffffffffffffffffffffff168152602001600073ffffffffffffffffffffffffffffffffffffffff16815260200160008152602001600081525090565b6000604051905090565b600080fd5b600080fd5b600073ffffffffffffffffffffffffffffffffffffffff82169050919050565b60006113a68261137b565b9050919050565b6113b68161139b565b81146113c157600080fd5b50565b6000813590506113d3816113ad565b92915050565b6000819050919050565b6113ec816113d9565b81146113f757600080fd5b50565b600081359050611409816113e3565b92915050565b60008060006060848603121561142857611427611371565b5b6000611436868287016113c4565b9350506020611447868287016113fa565b9250506040611458868287016113fa565b9150509250925092565b600080fd5b600080fd5b6000601f19601f8301169050919050565b7f4e487b7100000000000000000000000000000000000000000000000000000000600052604160045260246000fd5b6114b58261146c565b810181811067ffffffffffffffff821117156114d4576114d361147d565b5b80604052505050565b60006114e7611367565b90506114f382826114ac565b919050565b600067ffffffffffffffff8211156115135761151261147d565b5b61151c8261146c565b9050602081019050919050565b82818337600083830152505050565b600061154b611546846114f8565b6114dd565b90508281526020810184848401111561156757611566611467565b5b611572848285611529565b509392505050565b600082601f83011261158f5761158e611462565b5b813561159f848260208601611538565b91505092915050565b600080600080608085870312156115c2576115c1611371565b5b60006115d0878288016113c4565b94505060206115e1878288016113c4565b93505060406115f2878288016113fa565b925050606085013567ffffffffffffffff81111561161357611612611376565b5b61161f8782880161157a565b91505092959194509250565b60007fffffffff0000000000000000000000000000000000000000000000000000000082169050919050565b6116608161162b565b82525050565b600060208201905061167b6000830184611657565b92915050565b60006020828403121561169757611696611371565b5b60006116a5848285016113fa565b91505092915050565b6116b78161139b565b82525050565b6116c6816113d9565b82525050565b6080820160008201516116e260008501826116ae565b5060208201516116f560208501826116ae565b50604082015161170860408501826116bd565b50606082015161171b60608501826116bd565b50505050565b600060808201905061173660008301846116cc565b92915050565b6000806040838503121561175357611752611371565b5b6000611761858286016113fa565b9250506020611772858286016113fa565b9150509250929050565b611785816113d9565b82525050565b60006020820190506117a0600083018461177c565b92915050565b6117af8161139b565b82525050565b60006080820190506117ca60008301876117a6565b6117d760208301866117a6565b6117e4604083018561177c565b6117f1606083018461177c565b95945050505050565b600081519050919050565b600082825260208201905092915050565b6000819050602082019050919050565b60808201600082015161183c60008501826116ae565b50602082015161184f60208501826116ae565b50604082015161186260408501826116bd565b50606082015161187560608501826116bd565b50505050565b60006118878383611826565b60808301905092915050565b6000602082019050919050565b60006118ab826117fa565b6118b58185611805565b93506118c083611816565b8060005b838110156118f15781516118d8888261187b565b97506118e383611893565b9250506001810190506118c4565b5085935050505092915050565b6000602082019050818103600083015261191881846118a0565b905092915050565b6000806040838503121561193757611936611371565b5b6000611945858286016113c4565b9250506020611956858286016113fa565b9150509250929050565b600082825260208201905092915050565b7f50726963652073686f756c642062652067726561746572207468616e20300000600082015250565b60006119a7601e83611960565b91506119b282611971565b602082019050919050565b600060208201905081810360008301526119d68161199a565b9050919050565b60006060820190506119f260008301866117a6565b6119ff60208301856117a6565b611a0c604083018461177c565b949350505050565b7f496e73756666696369656e742066756e64730000000000000000000000000000600082015250565b6000611a4a601283611960565b9150611a5582611a14565b602082019050919050565b60006020820190508181036000830152611a7981611a3d565b9050919050565b7f4578636573732066756e64730000000000000000000000000000000000000000600082015250565b6000611ab6600c83611960565b9150611ac182611a80565b602082019050919050565b60006020820190508181036000830152611ae581611aa9565b9050919050565b7f4e6f204e46547320617661696c61626c65000000000000000000000000000000600082015250565b6000611b22601183611960565b9150611b2d82611aec565b602082019050919050565b60006020820190508181036000830152611b5181611b15565b9050919050565b7f4e487b7100000000000000000000000000000000000000000000000000000000600052603260045260246000fd5b7f4e487b7100000000000000000000000000000000000000000000000000000000600052601160045260246000fd5b6000611bc1826113d9565b91507fffffffffffffffffffffffffffffffffffffffffffffffffffffffffffffffff8203611bf357611bf2611b87565b5b600182019050919050565b7f4e6f204e46547320617661696c61626c652077697468696e207468652073706560008201527f636966696564206d617850726963650000000000000000000000000000000000602082015250565b6000611c5a602f83611960565b9150611c6582611bfe565b604082019050919050565b60006020820190508181036000830152611c8981611c4d565b9050919050565b7f4f6e6c7920746865206f776e65722063616e207769746864726177207468652060008201527f6f666665722e0000000000000000000000000000000000000000000000000000602082015250565b6000611cec602683611960565b9150611cf782611c90565b604082019050919050565b60006020820190508181036000830152611d1b81611cdf565b9050919050565b7f496e76616c6964204e465420636f6e74726163742061646472657373206f722060008201527f746f6b656e2049442e0000000000000000000000000000000000000000000000602082015250565b6000611d7e602983611960565b9150611d8982611d22565b604082019050919050565b60006020820190508181036000830152611dad81611d71565b9050919050565b60008160601b9050919050565b6000611dcc82611db4565b9050919050565b6000611dde82611dc1565b9050919050565b611df6611df18261139b565b611dd3565b82525050565b6000819050919050565b611e17611e12826113d9565b611dfc565b82525050565b6000611e298285611de5565b601482019150611e398284611e06565b6020820191508190509392505050565b6000611e558285611e06565b602082019150611e658284611e06565b6020820191508190509392505050565b7f4e487b7100000000000000000000000000000000000000000000000000000000600052601260045260246000fd5b6000611eaf826113d9565b9150611eba836113d9565b925082611eca57611ec9611e75565b5b828206905092915050565b6000611ee0826113d9565b9150611eeb836113d9565b9250828203905081811115611f0357611f02611b87565b5b92915050565b7f4e487b7100000000000000000000000000000000000000000000000000000000600052603160045260246000fdfea26469706673582212205b913f18d8d648e91f030153564e69bd0a937513d997eaa2d5f11d3d83c47b7564736f6c63430008120033",
    "linkReferences": {},
    "deployedLinkReferences": {}
}